{
  "contractName": "Certificate",
  "abi": [
    {
      "constant": true,
      "inputs": [],
      "name": "certificateId",
      "outputs": [
        {
          "internalType": "uint256",
          "name": "",
          "type": "uint256"
        }
      ],
      "payable": false,
      "stateMutability": "view",
      "type": "function"
    },
    {
      "constant": true,
      "inputs": [
        {
          "internalType": "uint256",
          "name": "",
          "type": "uint256"
        }
      ],
      "name": "listUser",
      "outputs": [
        {
          "internalType": "string",
          "name": "name",
          "type": "string"
        },
        {
          "internalType": "address",
          "name": "addr",
          "type": "address"
        },
        {
          "internalType": "uint256",
          "name": "role",
          "type": "uint256"
        }
      ],
      "payable": false,
      "stateMutability": "view",
      "type": "function"
    },
    {
      "constant": false,
      "inputs": [
        {
          "internalType": "string",
          "name": "name",
          "type": "string"
        },
        {
          "internalType": "uint256",
          "name": "role",
          "type": "uint256"
        }
      ],
      "name": "signUp",
      "outputs": [],
      "payable": false,
      "stateMutability": "nonpayable",
      "type": "function"
    },
    {
      "constant": true,
      "inputs": [
        {
          "internalType": "address",
          "name": "addr",
          "type": "address"
        }
      ],
      "name": "getNameByAddress",
      "outputs": [
        {
          "internalType": "string",
          "name": "",
          "type": "string"
        }
      ],
      "payable": false,
      "stateMutability": "view",
      "type": "function"
    },
    {
      "constant": true,
      "inputs": [
        {
          "internalType": "address",
          "name": "addr",
          "type": "address"
        }
      ],
      "name": "checkIssuer",
      "outputs": [
        {
          "internalType": "bool",
          "name": "",
          "type": "bool"
        }
      ],
      "payable": false,
      "stateMutability": "view",
      "type": "function"
    },
    {
      "constant": true,
      "inputs": [
        {
          "internalType": "address",
          "name": "addr",
          "type": "address"
        }
      ],
      "name": "checkRecipient",
      "outputs": [
        {
          "internalType": "bool",
          "name": "",
          "type": "bool"
        }
      ],
      "payable": false,
      "stateMutability": "view",
      "type": "function"
    },
    {
      "constant": true,
      "inputs": [
        {
          "internalType": "uint256",
          "name": "id",
          "type": "uint256"
        }
      ],
      "name": "getUserById",
      "outputs": [
        {
          "internalType": "string",
          "name": "",
          "type": "string"
        },
        {
          "internalType": "address",
          "name": "",
          "type": "address"
        }
      ],
      "payable": false,
      "stateMutability": "view",
      "type": "function"
    },
    {
      "constant": true,
      "inputs": [],
      "name": "getMyProfile",
      "outputs": [
        {
          "internalType": "string",
          "name": "",
          "type": "string"
        },
        {
          "internalType": "address",
          "name": "",
          "type": "address"
        }
      ],
      "payable": false,
      "stateMutability": "view",
      "type": "function"
    },
    {
      "constant": false,
      "inputs": [
        {
          "internalType": "address",
          "name": "recipient",
          "type": "address"
        },
        {
          "internalType": "string",
          "name": "title",
          "type": "string"
        },
        {
          "internalType": "string",
          "name": "ipfsHash",
          "type": "string"
        },
        {
          "internalType": "uint256",
          "name": "issueDate",
          "type": "uint256"
        }
      ],
      "name": "issueCertificate",
      "outputs": [],
      "payable": false,
      "stateMutability": "nonpayable",
      "type": "function"
    },
    {
      "constant": true,
      "inputs": [
        {
          "internalType": "uint256",
          "name": "id",
          "type": "uint256"
        }
      ],
      "name": "getCertificateById",
      "outputs": [
        {
          "components": [
            {
              "internalType": "string",
              "name": "title",
              "type": "string"
            },
            {
              "internalType": "string",
              "name": "ipfsHash",
              "type": "string"
            },
            {
              "internalType": "string",
              "name": "issuer",
              "type": "string"
            },
            {
              "internalType": "string",
              "name": "recipient",
              "type": "string"
            },
            {
              "internalType": "uint256",
              "name": "issueDate",
              "type": "uint256"
            }
          ],
          "internalType": "struct Certificate.Certificate",
          "name": "",
          "type": "tuple"
        }
      ],
      "payable": false,
      "stateMutability": "view",
      "type": "function"
    },
    {
      "constant": true,
      "inputs": [
        {
          "internalType": "address",
          "name": "recipient",
          "type": "address"
        }
      ],
      "name": "getCertificateIdOfUser",
      "outputs": [
        {
          "internalType": "uint256[]",
          "name": "",
          "type": "uint256[]"
        }
      ],
      "payable": false,
      "stateMutability": "view",
      "type": "function"
    },
    {
      "constant": true,
      "inputs": [
        {
          "internalType": "address",
          "name": "issuer",
          "type": "address"
        }
      ],
      "name": "getCertificateIdIdIssuer",
      "outputs": [
        {
          "internalType": "uint256[]",
          "name": "",
          "type": "uint256[]"
        }
      ],
      "payable": false,
      "stateMutability": "view",
      "type": "function"
    }
  ],
  "bytecode": "0x608060405234801561001057600080fd5b50611af4806100206000396000f3fe608060405234801561001057600080fd5b50600436106100b45760003560e01c8063a0f9e80911610071578063a0f9e809146101a3578063c6f3a9aa146101d5578063dc02992e14610205578063e4deee1a14610221578063f6856ccc14610251578063f814bcd214610281576100b4565b806321527e50146100b95780635629cb0b146100d857806369075afe146100f65780636ed6da9e146101125780637c80bb4f146101435780639d735caf14610173575b600080fd5b6100c16102b1565b6040516100cf929190611813565b60405180910390f35b6100e06103fa565b6040516100ed9190611903565b60405180910390f35b610110600480360361010b9190810190611443565b610400565b005b61012c60048036036101279190810190611497565b6107d4565b60405161013a929190611813565b60405180910390f35b61015d60048036036101589190810190611387565b6108d9565b60405161016a91906117f1565b60405180910390f35b61018d60048036036101889190810190611497565b6109ba565b60405161019a91906118e1565b60405180910390f35b6101bd60048036036101b89190810190611497565b610c84565b6040516101cc93929190611843565b60405180910390f35b6101ef60048036036101ea9190810190611387565b610d73565b6040516101fc91906117d6565b60405180910390f35b61021f600480360361021a91908101906113b0565b610dc9565b005b61023b60048036036102369190810190611387565b610ffa565b60405161024891906117b4565b60405180910390f35b61026b60048036036102669190810190611387565b611091565b60405161027891906117b4565b60405180910390f35b61029b60048036036102969190810190611387565b611128565b6040516102a891906117d6565b60405180910390f35b6060600080600160003373ffffffffffffffffffffffffffffffffffffffff1673ffffffffffffffffffffffffffffffffffffffff1681526020019081526020016000205490506000818154811061030557fe5b90600052602060002090600302016000016000828154811061032357fe5b906000526020600020906003020160010160009054906101000a900473ffffffffffffffffffffffffffffffffffffffff16818054600181600116156101000203166002900480601f0160208091040260200160405190810160405280929190818152602001828054600181600116156101000203166002900480156103ea5780601f106103bf576101008083540402835291602001916103ea565b820191906000526020600020905b8154815290600101906020018083116103cd57829003601f168201915b5050505050915092509250509091565b60085481565b60001515600560003373ffffffffffffffffffffffffffffffffffffffff1673ffffffffffffffffffffffffffffffffffffffff16815260200190815260200160002060009054906101000a900460ff16151514610493576040517f08c379a000000000000000000000000000000000000000000000000000000000815260040161048a906118a1565b60405180910390fd5b60001515600260003373ffffffffffffffffffffffffffffffffffffffff1673ffffffffffffffffffffffffffffffffffffffff16815260200190815260200160002060009054906101000a900460ff16151514610526576040517f08c379a000000000000000000000000000000000000000000000000000000000815260040161051d906118c1565b60405180910390fd5b6001600260003373ffffffffffffffffffffffffffffffffffffffff1673ffffffffffffffffffffffffffffffffffffffff16815260200190815260200160002060006101000a81548160ff02191690831515021790555061058661117e565b82816000018190525033816020019073ffffffffffffffffffffffffffffffffffffffff16908173ffffffffffffffffffffffffffffffffffffffff16815250508181604001818152505082600660003373ffffffffffffffffffffffffffffffffffffffff1673ffffffffffffffffffffffffffffffffffffffff16815260200190815260200160002090805190602001906106249291906111b5565b50600182141561068b576001600360003373ffffffffffffffffffffffffffffffffffffffff1673ffffffffffffffffffffffffffffffffffffffff16815260200190815260200160002060006101000a81548160ff0219169083151502179055506106e4565b6001600460003373ffffffffffffffffffffffffffffffffffffffff1673ffffffffffffffffffffffffffffffffffffffff16815260200190815260200160002060006101000a81548160ff0219169083151502179055505b60008190806001815401808255809150509060018203906000526020600020906003020160009091929091909150600082015181600001908051906020019061072e929190611235565b5060208201518160010160006101000a81548173ffffffffffffffffffffffffffffffffffffffff021916908373ffffffffffffffffffffffffffffffffffffffff16021790555060408201518160020155505050600160008054905003600160003373ffffffffffffffffffffffffffffffffffffffff1673ffffffffffffffffffffffffffffffffffffffff16815260200190815260200160002081905550505050565b606060008083815481106107e457fe5b90600052602060002090600302016000016000848154811061080257fe5b906000526020600020906003020160010160009054906101000a900473ffffffffffffffffffffffffffffffffffffffff16818054600181600116156101000203166002900480601f0160208091040260200160405190810160405280929190818152602001828054600181600116156101000203166002900480156108c95780601f1061089e576101008083540402835291602001916108c9565b820191906000526020600020905b8154815290600101906020018083116108ac57829003601f168201915b5050505050915091509150915091565b6060600660008373ffffffffffffffffffffffffffffffffffffffff1673ffffffffffffffffffffffffffffffffffffffff1681526020019081526020016000208054600181600116156101000203166002900480601f0160208091040260200160405190810160405280929190818152602001828054600181600116156101000203166002900480156109ae5780601f10610983576101008083540402835291602001916109ae565b820191906000526020600020905b81548152906001019060200180831161099157829003601f168201915b50505050509050919050565b6109c26112b5565b600760018303815481106109d257fe5b90600052602060002090600502016040518060a0016040529081600082018054600181600116156101000203166002900480601f016020809104026020016040519081016040528092919081815260200182805460018160011615610100020316600290048015610a845780601f10610a5957610100808354040283529160200191610a84565b820191906000526020600020905b815481529060010190602001808311610a6757829003601f168201915b50505050508152602001600182018054600181600116156101000203166002900480601f016020809104026020016040519081016040528092919081815260200182805460018160011615610100020316600290048015610b265780601f10610afb57610100808354040283529160200191610b26565b820191906000526020600020905b815481529060010190602001808311610b0957829003601f168201915b50505050508152602001600282018054600181600116156101000203166002900480601f016020809104026020016040519081016040528092919081815260200182805460018160011615610100020316600290048015610bc85780601f10610b9d57610100808354040283529160200191610bc8565b820191906000526020600020905b815481529060010190602001808311610bab57829003601f168201915b50505050508152602001600382018054600181600116156101000203166002900480601f016020809104026020016040519081016040528092919081815260200182805460018160011615610100020316600290048015610c6a5780601f10610c3f57610100808354040283529160200191610c6a565b820191906000526020600020905b815481529060010190602001808311610c4d57829003601f168201915b505050505081526020016004820154815250509050919050565b60008181548110610c9157fe5b9060005260206000209060030201600091509050806000018054600181600116156101000203166002900480601f016020809104026020016040519081016040528092919081815260200182805460018160011615610100020316600290048015610d3d5780601f10610d1257610100808354040283529160200191610d3d565b820191906000526020600020905b815481529060010190602001808311610d2057829003601f168201915b5050505050908060010160009054906101000a900473ffffffffffffffffffffffffffffffffffffffff16908060020154905083565b6000600360008373ffffffffffffffffffffffffffffffffffffffff1673ffffffffffffffffffffffffffffffffffffffff16815260200190815260200160002060009054906101000a900460ff169050919050565b60011515610dd633610d73565b151514610e18576040517f08c379a0000000000000000000000000000000000000000000000000000000008152600401610e0f90611881565b60405180910390fd5b60006008600081546001019190508190559050610e336112b5565b848160000181905250838160200181905250610e4e336108d9565b8160400181905250610e5f866108d9565b816060018190525042816080018181525050600781908060018154018082558091505090600182039060005260206000209060050201600090919290919091506000820151816000019080519060200190610ebb929190611235565b506020820151816001019080519060200190610ed8929190611235565b506040820151816002019080519060200190610ef5929190611235565b506060820151816003019080519060200190610f12929190611235565b5060808201518160040155505050600960003373ffffffffffffffffffffffffffffffffffffffff1673ffffffffffffffffffffffffffffffffffffffff168152602001908152602001600020829080600181540180825580915050906001820390600052602060002001600090919290919091505550600a60008773ffffffffffffffffffffffffffffffffffffffff1673ffffffffffffffffffffffffffffffffffffffff168152602001908152602001600020829080600181540180825580915050906001820390600052602060002001600090919290919091505550505050505050565b6060600a60008373ffffffffffffffffffffffffffffffffffffffff1673ffffffffffffffffffffffffffffffffffffffff16815260200190815260200160002080548060200260200160405190810160405280929190818152602001828054801561108557602002820191906000526020600020905b815481526020019060010190808311611071575b50505050509050919050565b6060600960008373ffffffffffffffffffffffffffffffffffffffff1673ffffffffffffffffffffffffffffffffffffffff16815260200190815260200160002080548060200260200160405190810160405280929190818152602001828054801561111c57602002820191906000526020600020905b815481526020019060010190808311611108575b50505050509050919050565b6000600460008373ffffffffffffffffffffffffffffffffffffffff1673ffffffffffffffffffffffffffffffffffffffff16815260200190815260200160002060009054906101000a900460ff169050919050565b604051806060016040528060608152602001600073ffffffffffffffffffffffffffffffffffffffff168152602001600081525090565b828054600181600116156101000203166002900490600052602060002090601f016020900481019282601f106111f657805160ff1916838001178555611224565b82800160010185558215611224579182015b82811115611223578251825591602001919060010190611208565b5b50905061123191906112e4565b5090565b828054600181600116156101000203166002900490600052602060002090601f016020900481019282601f1061127657805160ff19168380011785556112a4565b828001600101855582156112a4579182015b828111156112a3578251825591602001919060010190611288565b5b5090506112b191906112e4565b5090565b6040518060a0016040528060608152602001606081526020016060815260200160608152602001600081525090565b61130691905b808211156113025760008160009055506001016112ea565b5090565b90565b60008135905061131881611a83565b92915050565b600082601f83011261132f57600080fd5b813561134261133d8261194b565b61191e565b9150808252602083016020830185838301111561135e57600080fd5b611369838284611a30565b50505092915050565b60008135905061138181611a9a565b92915050565b60006020828403121561139957600080fd5b60006113a784828501611309565b91505092915050565b600080600080608085870312156113c657600080fd5b60006113d487828801611309565b945050602085013567ffffffffffffffff8111156113f157600080fd5b6113fd8782880161131e565b935050604085013567ffffffffffffffff81111561141a57600080fd5b6114268782880161131e565b925050606061143787828801611372565b91505092959194509250565b6000806040838503121561145657600080fd5b600083013567ffffffffffffffff81111561147057600080fd5b61147c8582860161131e565b925050602061148d85828601611372565b9150509250929050565b6000602082840312156114a957600080fd5b60006114b784828501611372565b91505092915050565b60006114cc8383611796565b60208301905092915050565b6114e1816119e8565b82525050565b60006114f282611987565b6114fc81856119b5565b935061150783611977565b8060005b8381101561153857815161151f88826114c0565b975061152a836119a8565b92505060018101905061150b565b5085935050505092915050565b61154e816119fa565b82525050565b600061155f8261199d565b61156981856119d7565b9350611579818560208601611a3f565b61158281611a72565b840191505092915050565b600061159882611992565b6115a281856119c6565b93506115b2818560208601611a3f565b6115bb81611a72565b840191505092915050565b60006115d182611992565b6115db81856119d7565b93506115eb818560208601611a3f565b6115f481611a72565b840191505092915050565b600061160c602c836119d7565b91507f796f7520646f6e27742068617665207072696f7269747920746f20697373756560008301527f20636572746966696361746500000000000000000000000000000000000000006020830152604082019050919050565b60006116726010836119d7565b91507f796f7520617265206c6f67656420696e000000000000000000000000000000006000830152602082019050919050565b60006116b26021836119d7565b91507f7468697320757365722068617320616c7265616479206265656e207369676e7560008301527f70000000000000000000000000000000000000000000000000000000000000006020830152604082019050919050565b600060a0830160008301518482036000860152611728828261158d565b91505060208301518482036020860152611742828261158d565b9150506040830151848203604086015261175c828261158d565b91505060608301518482036060860152611776828261158d565b915050608083015161178b6080860182611796565b508091505092915050565b61179f81611a26565b82525050565b6117ae81611a26565b82525050565b600060208201905081810360008301526117ce81846114e7565b905092915050565b60006020820190506117eb6000830184611545565b92915050565b6000602082019050818103600083015261180b8184611554565b905092915050565b6000604082019050818103600083015261182d8185611554565b905061183c60208301846114d8565b9392505050565b6000606082019050818103600083015261185d81866115c6565b905061186c60208301856114d8565b61187960408301846117a5565b949350505050565b6000602082019050818103600083015261189a816115ff565b9050919050565b600060208201905081810360008301526118ba81611665565b9050919050565b600060208201905081810360008301526118da816116a5565b9050919050565b600060208201905081810360008301526118fb818461170b565b905092915050565b600060208201905061191860008301846117a5565b92915050565b6000604051905081810181811067ffffffffffffffff8211171561194157600080fd5b8060405250919050565b600067ffffffffffffffff82111561196257600080fd5b601f19601f8301169050602081019050919050565b6000819050602082019050919050565b600081519050919050565b600081519050919050565b600081519050919050565b6000602082019050919050565b600082825260208201905092915050565b600082825260208201905092915050565b600082825260208201905092915050565b60006119f382611a06565b9050919050565b60008115159050919050565b600073ffffffffffffffffffffffffffffffffffffffff82169050919050565b6000819050919050565b82818337600083830152505050565b60005b83811015611a5d578082015181840152602081019050611a42565b83811115611a6c576000848401525b50505050565b6000601f19601f8301169050919050565b611a8c816119e8565b8114611a9757600080fd5b50565b611aa381611a26565b8114611aae57600080fd5b5056fea365627a7a723158200eeb5e8089975456aa5ffbd96029ebd1fc1e09b747ae1a73d7dd8aa0604c7cc36c6578706572696d656e74616cf564736f6c63430005100040",
  "source": "// SPDX-License-Identifier: MIT\npragma solidity >=0.4.22 <0.9.0;\npragma experimental ABIEncoderV2;\nimport \"./User.sol\";\n\ncontract Certificate {\n    struct User {\n    string name;\n    address addr;\n    uint role;\n  }\n  User[] public listUser;\n  mapping (address => uint) userId;\n  mapping (address => bool) isUser;\n  mapping (address => bool) isIssuer;\n  mapping (address => bool) isRecipient;\n  mapping (address => bool) isLogin;\n  mapping (address => string) addressToName;\n  function signUp(string memory name,uint role) public {\n    require(isLogin[msg.sender]==false,\"you are loged in\");\n    require(isUser[msg.sender]==false,\"this user has already been signup\");\n    isUser[msg.sender]=true;\n    User memory user;\n    user.name=name;\n    user.addr=msg.sender;\n    user.role=role;\n    addressToName[msg.sender]=name;\n    if (role==1){\n      isIssuer[msg.sender]=true;\n    }\n    else {\n      isRecipient[msg.sender]=true;\n    }\n    listUser.push(user);\n    userId[msg.sender]=listUser.length-1;\n  }\n  function getNameByAddress(address addr) public view returns(string memory){\n    return addressToName[addr];\n  }\n  function checkIssuer(address addr) public view returns(bool){\n    return isIssuer[addr];\n  }\n  function checkRecipient(address addr) public view returns(bool){\n    return isRecipient[addr];\n  }\n  function getUserById(uint id) public view returns(string memory,address){\n    return (listUser[id].name,listUser[id].addr);\n  }\n  \n  function getMyProfile() public view returns(string memory,address){\n    uint id=userId[msg.sender];\n    return (listUser[id].name,listUser[id].addr);\n  }\n  struct Certificate {\n    string title;\n    string ipfsHash;\n    string issuer;\n    string recipient;\n    uint256 issueDate;\n  }\n  Certificate[] certificateList;\n  uint256 public certificateId;\n  mapping(address => uint[]) certificateOfIssuer;\n  mapping(address => uint[]) certificateOfRecipient;\n  function issueCertificate(address recipient,string memory title, string memory ipfsHash ,uint256 issueDate) public{\n    require(checkIssuer(msg.sender)==true,\"you don't have priority to issue certificate\");\n    uint id = ++certificateId;\n    Certificate memory certi;\n    certi.title=title;\n    certi.ipfsHash=ipfsHash;\n    certi.issuer=getNameByAddress(msg.sender);\n    certi.recipient=getNameByAddress(recipient);\n    certi.issueDate=block.timestamp;\n    certificateList.push(certi);\n    certificateOfIssuer[msg.sender].push(id);\n    certificateOfRecipient[recipient].push(id);\n  }\n  function getCertificateById(uint id) public view returns(Certificate memory ){\n    return certificateList[id-1];\n  }\n  function getCertificateIdOfUser(address recipient) public view returns(uint[] memory){\n    return certificateOfRecipient[recipient];\n  }\n  function getCertificateIdIdIssuer(address issuer) public view returns(uint[] memory){\n    return certificateOfIssuer[issuer];\n  }\n}\n",
  "sourcePath": "/home/quanle/Blockchain/Ethereum/CertificateStorage/certificate_storage/certificate/contracts/Certificate.sol",
  "compiler": {
    "name": "solc",
    "version": "0.5.16+commit.9c3226ce.Emscripten.clang"
  },
  "schemaVersion": "3.4.3",
  "updatedAt": "2021-10-11T15:14:12.098Z",
  "networkType": "ethereum",
  "devdoc": {
    "methods": {}
  },
  "userdoc": {
    "methods": {}
  }
}