{
  "contractName": "Certificate",
  "abi": [
    {
      "constant": true,
      "inputs": [],
      "name": "certificateId",
      "outputs": [
        {
          "internalType": "uint256",
          "name": "",
          "type": "uint256"
        }
      ],
      "payable": false,
      "stateMutability": "view",
      "type": "function"
    },
    {
      "constant": true,
      "inputs": [
        {
          "internalType": "uint256",
          "name": "",
          "type": "uint256"
        }
      ],
      "name": "listUser",
      "outputs": [
        {
          "internalType": "string",
          "name": "name",
          "type": "string"
        },
        {
          "internalType": "address",
          "name": "addr",
          "type": "address"
        },
        {
          "internalType": "uint256",
          "name": "role",
          "type": "uint256"
        }
      ],
      "payable": false,
      "stateMutability": "view",
      "type": "function"
    },
    {
      "constant": false,
      "inputs": [
        {
          "internalType": "string",
          "name": "name",
          "type": "string"
        },
        {
          "internalType": "uint256",
          "name": "role",
          "type": "uint256"
        }
      ],
      "name": "signUp",
      "outputs": [],
      "payable": false,
      "stateMutability": "nonpayable",
      "type": "function"
    },
    {
      "constant": true,
      "inputs": [
        {
          "internalType": "address",
          "name": "addr",
          "type": "address"
        }
      ],
      "name": "getNameByAddress",
      "outputs": [
        {
          "internalType": "string",
          "name": "",
          "type": "string"
        }
      ],
      "payable": false,
      "stateMutability": "view",
      "type": "function"
    },
    {
      "constant": true,
      "inputs": [
        {
          "internalType": "address",
          "name": "addr",
          "type": "address"
        }
      ],
      "name": "checkIssuer",
      "outputs": [
        {
          "internalType": "bool",
          "name": "",
          "type": "bool"
        }
      ],
      "payable": false,
      "stateMutability": "view",
      "type": "function"
    },
    {
      "constant": true,
      "inputs": [
        {
          "internalType": "address",
          "name": "addr",
          "type": "address"
        }
      ],
      "name": "checkRecipient",
      "outputs": [
        {
          "internalType": "bool",
          "name": "",
          "type": "bool"
        }
      ],
      "payable": false,
      "stateMutability": "view",
      "type": "function"
    },
    {
      "constant": true,
      "inputs": [
        {
          "internalType": "uint256",
          "name": "id",
          "type": "uint256"
        }
      ],
      "name": "getUserById",
      "outputs": [
        {
          "internalType": "string",
          "name": "",
          "type": "string"
        },
        {
          "internalType": "address",
          "name": "",
          "type": "address"
        }
      ],
      "payable": false,
      "stateMutability": "view",
      "type": "function"
    },
    {
      "constant": true,
      "inputs": [],
      "name": "getMyProfile",
      "outputs": [
        {
          "internalType": "string",
          "name": "",
          "type": "string"
        },
        {
          "internalType": "address",
          "name": "",
          "type": "address"
        }
      ],
      "payable": false,
      "stateMutability": "view",
      "type": "function"
    },
    {
      "constant": false,
      "inputs": [
        {
          "internalType": "address",
          "name": "recipient",
          "type": "address"
        },
        {
          "internalType": "string",
          "name": "title",
          "type": "string"
        },
        {
          "internalType": "string",
          "name": "ipfsHash",
          "type": "string"
        },
        {
          "internalType": "uint256",
          "name": "issueDate",
          "type": "uint256"
        }
      ],
      "name": "issueCertificate",
      "outputs": [],
      "payable": false,
      "stateMutability": "nonpayable",
      "type": "function"
    },
    {
      "constant": true,
      "inputs": [
        {
          "internalType": "uint256",
          "name": "id",
          "type": "uint256"
        }
      ],
      "name": "getCertificateById",
      "outputs": [
        {
          "components": [
            {
              "internalType": "string",
              "name": "title",
              "type": "string"
            },
            {
              "internalType": "string",
              "name": "ipfsHash",
              "type": "string"
            },
            {
              "internalType": "string",
              "name": "issuer",
              "type": "string"
            },
            {
              "internalType": "string",
              "name": "recipient",
              "type": "string"
            },
            {
              "internalType": "uint256",
              "name": "issueDate",
              "type": "uint256"
            }
          ],
          "internalType": "struct Certificate.Certificate",
          "name": "",
          "type": "tuple"
        }
      ],
      "payable": false,
      "stateMutability": "view",
      "type": "function"
    },
    {
      "constant": true,
      "inputs": [
        {
          "internalType": "address",
          "name": "recipient",
          "type": "address"
        }
      ],
      "name": "getCertificateIdOfUser",
      "outputs": [
        {
          "internalType": "uint256[]",
          "name": "",
          "type": "uint256[]"
        }
      ],
      "payable": false,
      "stateMutability": "view",
      "type": "function"
    },
    {
      "constant": true,
      "inputs": [
        {
          "internalType": "address",
          "name": "issuer",
          "type": "address"
        }
      ],
      "name": "getCertificateIdIdIssuer",
      "outputs": [
        {
          "internalType": "uint256[]",
          "name": "",
          "type": "uint256[]"
        }
      ],
      "payable": false,
      "stateMutability": "view",
      "type": "function"
    }
  ],
  "bytecode": "0x608060405234801561001057600080fd5b50611af1806100206000396000f3fe608060405234801561001057600080fd5b50600436106100b45760003560e01c8063a0f9e80911610071578063a0f9e809146101a3578063c6f3a9aa146101d5578063dc02992e14610205578063e4deee1a14610221578063f6856ccc14610251578063f814bcd214610281576100b4565b806321527e50146100b95780635629cb0b146100d857806369075afe146100f65780636ed6da9e146101125780637c80bb4f146101435780639d735caf14610173575b600080fd5b6100c16102b1565b6040516100cf929190611810565b60405180910390f35b6100e06103fa565b6040516100ed9190611900565b60405180910390f35b610110600480360361010b9190810190611440565b610400565b005b61012c60048036036101279190810190611494565b6107d4565b60405161013a929190611810565b60405180910390f35b61015d60048036036101589190810190611384565b6108d9565b60405161016a91906117ee565b60405180910390f35b61018d60048036036101889190810190611494565b6109ba565b60405161019a91906118de565b60405180910390f35b6101bd60048036036101b89190810190611494565b610c81565b6040516101cc93929190611840565b60405180910390f35b6101ef60048036036101ea9190810190611384565b610d70565b6040516101fc91906117d3565b60405180910390f35b61021f600480360361021a91908101906113ad565b610dc6565b005b61023b60048036036102369190810190611384565b610ff7565b60405161024891906117b1565b60405180910390f35b61026b60048036036102669190810190611384565b61108e565b60405161027891906117b1565b60405180910390f35b61029b60048036036102969190810190611384565b611125565b6040516102a891906117d3565b60405180910390f35b6060600080600160003373ffffffffffffffffffffffffffffffffffffffff1673ffffffffffffffffffffffffffffffffffffffff1681526020019081526020016000205490506000818154811061030557fe5b90600052602060002090600302016000016000828154811061032357fe5b906000526020600020906003020160010160009054906101000a900473ffffffffffffffffffffffffffffffffffffffff16818054600181600116156101000203166002900480601f0160208091040260200160405190810160405280929190818152602001828054600181600116156101000203166002900480156103ea5780601f106103bf576101008083540402835291602001916103ea565b820191906000526020600020905b8154815290600101906020018083116103cd57829003601f168201915b5050505050915092509250509091565b60085481565b60001515600560003373ffffffffffffffffffffffffffffffffffffffff1673ffffffffffffffffffffffffffffffffffffffff16815260200190815260200160002060009054906101000a900460ff16151514610493576040517f08c379a000000000000000000000000000000000000000000000000000000000815260040161048a9061189e565b60405180910390fd5b60001515600260003373ffffffffffffffffffffffffffffffffffffffff1673ffffffffffffffffffffffffffffffffffffffff16815260200190815260200160002060009054906101000a900460ff16151514610526576040517f08c379a000000000000000000000000000000000000000000000000000000000815260040161051d906118be565b60405180910390fd5b6001600260003373ffffffffffffffffffffffffffffffffffffffff1673ffffffffffffffffffffffffffffffffffffffff16815260200190815260200160002060006101000a81548160ff02191690831515021790555061058661117b565b82816000018190525033816020019073ffffffffffffffffffffffffffffffffffffffff16908173ffffffffffffffffffffffffffffffffffffffff16815250508181604001818152505082600660003373ffffffffffffffffffffffffffffffffffffffff1673ffffffffffffffffffffffffffffffffffffffff16815260200190815260200160002090805190602001906106249291906111b2565b50600182141561068b576001600360003373ffffffffffffffffffffffffffffffffffffffff1673ffffffffffffffffffffffffffffffffffffffff16815260200190815260200160002060006101000a81548160ff0219169083151502179055506106e4565b6001600460003373ffffffffffffffffffffffffffffffffffffffff1673ffffffffffffffffffffffffffffffffffffffff16815260200190815260200160002060006101000a81548160ff0219169083151502179055505b60008190806001815401808255809150509060018203906000526020600020906003020160009091929091909150600082015181600001908051906020019061072e929190611232565b5060208201518160010160006101000a81548173ffffffffffffffffffffffffffffffffffffffff021916908373ffffffffffffffffffffffffffffffffffffffff16021790555060408201518160020155505050600160008054905003600160003373ffffffffffffffffffffffffffffffffffffffff1673ffffffffffffffffffffffffffffffffffffffff16815260200190815260200160002081905550505050565b606060008083815481106107e457fe5b90600052602060002090600302016000016000848154811061080257fe5b906000526020600020906003020160010160009054906101000a900473ffffffffffffffffffffffffffffffffffffffff16818054600181600116156101000203166002900480601f0160208091040260200160405190810160405280929190818152602001828054600181600116156101000203166002900480156108c95780601f1061089e576101008083540402835291602001916108c9565b820191906000526020600020905b8154815290600101906020018083116108ac57829003601f168201915b5050505050915091509150915091565b6060600660008373ffffffffffffffffffffffffffffffffffffffff1673ffffffffffffffffffffffffffffffffffffffff1681526020019081526020016000208054600181600116156101000203166002900480601f0160208091040260200160405190810160405280929190818152602001828054600181600116156101000203166002900480156109ae5780601f10610983576101008083540402835291602001916109ae565b820191906000526020600020905b81548152906001019060200180831161099157829003601f168201915b50505050509050919050565b6109c26112b2565b600782815481106109cf57fe5b90600052602060002090600502016040518060a0016040529081600082018054600181600116156101000203166002900480601f016020809104026020016040519081016040528092919081815260200182805460018160011615610100020316600290048015610a815780601f10610a5657610100808354040283529160200191610a81565b820191906000526020600020905b815481529060010190602001808311610a6457829003601f168201915b50505050508152602001600182018054600181600116156101000203166002900480601f016020809104026020016040519081016040528092919081815260200182805460018160011615610100020316600290048015610b235780601f10610af857610100808354040283529160200191610b23565b820191906000526020600020905b815481529060010190602001808311610b0657829003601f168201915b50505050508152602001600282018054600181600116156101000203166002900480601f016020809104026020016040519081016040528092919081815260200182805460018160011615610100020316600290048015610bc55780601f10610b9a57610100808354040283529160200191610bc5565b820191906000526020600020905b815481529060010190602001808311610ba857829003601f168201915b50505050508152602001600382018054600181600116156101000203166002900480601f016020809104026020016040519081016040528092919081815260200182805460018160011615610100020316600290048015610c675780601f10610c3c57610100808354040283529160200191610c67565b820191906000526020600020905b815481529060010190602001808311610c4a57829003601f168201915b505050505081526020016004820154815250509050919050565b60008181548110610c8e57fe5b9060005260206000209060030201600091509050806000018054600181600116156101000203166002900480601f016020809104026020016040519081016040528092919081815260200182805460018160011615610100020316600290048015610d3a5780601f10610d0f57610100808354040283529160200191610d3a565b820191906000526020600020905b815481529060010190602001808311610d1d57829003601f168201915b5050505050908060010160009054906101000a900473ffffffffffffffffffffffffffffffffffffffff16908060020154905083565b6000600360008373ffffffffffffffffffffffffffffffffffffffff1673ffffffffffffffffffffffffffffffffffffffff16815260200190815260200160002060009054906101000a900460ff169050919050565b60011515610dd333610d70565b151514610e15576040517f08c379a0000000000000000000000000000000000000000000000000000000008152600401610e0c9061187e565b60405180910390fd5b60006008600081546001019190508190559050610e306112b2565b848160000181905250838160200181905250610e4b336108d9565b8160400181905250610e5c866108d9565b816060018190525042816080018181525050600781908060018154018082558091505090600182039060005260206000209060050201600090919290919091506000820151816000019080519060200190610eb8929190611232565b506020820151816001019080519060200190610ed5929190611232565b506040820151816002019080519060200190610ef2929190611232565b506060820151816003019080519060200190610f0f929190611232565b5060808201518160040155505050600960003373ffffffffffffffffffffffffffffffffffffffff1673ffffffffffffffffffffffffffffffffffffffff168152602001908152602001600020829080600181540180825580915050906001820390600052602060002001600090919290919091505550600a60008773ffffffffffffffffffffffffffffffffffffffff1673ffffffffffffffffffffffffffffffffffffffff168152602001908152602001600020829080600181540180825580915050906001820390600052602060002001600090919290919091505550505050505050565b6060600a60008373ffffffffffffffffffffffffffffffffffffffff1673ffffffffffffffffffffffffffffffffffffffff16815260200190815260200160002080548060200260200160405190810160405280929190818152602001828054801561108257602002820191906000526020600020905b81548152602001906001019080831161106e575b50505050509050919050565b6060600960008373ffffffffffffffffffffffffffffffffffffffff1673ffffffffffffffffffffffffffffffffffffffff16815260200190815260200160002080548060200260200160405190810160405280929190818152602001828054801561111957602002820191906000526020600020905b815481526020019060010190808311611105575b50505050509050919050565b6000600460008373ffffffffffffffffffffffffffffffffffffffff1673ffffffffffffffffffffffffffffffffffffffff16815260200190815260200160002060009054906101000a900460ff169050919050565b604051806060016040528060608152602001600073ffffffffffffffffffffffffffffffffffffffff168152602001600081525090565b828054600181600116156101000203166002900490600052602060002090601f016020900481019282601f106111f357805160ff1916838001178555611221565b82800160010185558215611221579182015b82811115611220578251825591602001919060010190611205565b5b50905061122e91906112e1565b5090565b828054600181600116156101000203166002900490600052602060002090601f016020900481019282601f1061127357805160ff19168380011785556112a1565b828001600101855582156112a1579182015b828111156112a0578251825591602001919060010190611285565b5b5090506112ae91906112e1565b5090565b6040518060a0016040528060608152602001606081526020016060815260200160608152602001600081525090565b61130391905b808211156112ff5760008160009055506001016112e7565b5090565b90565b60008135905061131581611a80565b92915050565b600082601f83011261132c57600080fd5b813561133f61133a82611948565b61191b565b9150808252602083016020830185838301111561135b57600080fd5b611366838284611a2d565b50505092915050565b60008135905061137e81611a97565b92915050565b60006020828403121561139657600080fd5b60006113a484828501611306565b91505092915050565b600080600080608085870312156113c357600080fd5b60006113d187828801611306565b945050602085013567ffffffffffffffff8111156113ee57600080fd5b6113fa8782880161131b565b935050604085013567ffffffffffffffff81111561141757600080fd5b6114238782880161131b565b92505060606114348782880161136f565b91505092959194509250565b6000806040838503121561145357600080fd5b600083013567ffffffffffffffff81111561146d57600080fd5b6114798582860161131b565b925050602061148a8582860161136f565b9150509250929050565b6000602082840312156114a657600080fd5b60006114b48482850161136f565b91505092915050565b60006114c98383611793565b60208301905092915050565b6114de816119e5565b82525050565b60006114ef82611984565b6114f981856119b2565b935061150483611974565b8060005b8381101561153557815161151c88826114bd565b9750611527836119a5565b925050600181019050611508565b5085935050505092915050565b61154b816119f7565b82525050565b600061155c8261199a565b61156681856119d4565b9350611576818560208601611a3c565b61157f81611a6f565b840191505092915050565b60006115958261198f565b61159f81856119c3565b93506115af818560208601611a3c565b6115b881611a6f565b840191505092915050565b60006115ce8261198f565b6115d881856119d4565b93506115e8818560208601611a3c565b6115f181611a6f565b840191505092915050565b6000611609602c836119d4565b91507f796f7520646f6e27742068617665207072696f7269747920746f20697373756560008301527f20636572746966696361746500000000000000000000000000000000000000006020830152604082019050919050565b600061166f6010836119d4565b91507f796f7520617265206c6f67656420696e000000000000000000000000000000006000830152602082019050919050565b60006116af6021836119d4565b91507f7468697320757365722068617320616c7265616479206265656e207369676e7560008301527f70000000000000000000000000000000000000000000000000000000000000006020830152604082019050919050565b600060a0830160008301518482036000860152611725828261158a565b9150506020830151848203602086015261173f828261158a565b91505060408301518482036040860152611759828261158a565b91505060608301518482036060860152611773828261158a565b91505060808301516117886080860182611793565b508091505092915050565b61179c81611a23565b82525050565b6117ab81611a23565b82525050565b600060208201905081810360008301526117cb81846114e4565b905092915050565b60006020820190506117e86000830184611542565b92915050565b600060208201905081810360008301526118088184611551565b905092915050565b6000604082019050818103600083015261182a8185611551565b905061183960208301846114d5565b9392505050565b6000606082019050818103600083015261185a81866115c3565b905061186960208301856114d5565b61187660408301846117a2565b949350505050565b60006020820190508181036000830152611897816115fc565b9050919050565b600060208201905081810360008301526118b781611662565b9050919050565b600060208201905081810360008301526118d7816116a2565b9050919050565b600060208201905081810360008301526118f88184611708565b905092915050565b600060208201905061191560008301846117a2565b92915050565b6000604051905081810181811067ffffffffffffffff8211171561193e57600080fd5b8060405250919050565b600067ffffffffffffffff82111561195f57600080fd5b601f19601f8301169050602081019050919050565b6000819050602082019050919050565b600081519050919050565b600081519050919050565b600081519050919050565b6000602082019050919050565b600082825260208201905092915050565b600082825260208201905092915050565b600082825260208201905092915050565b60006119f082611a03565b9050919050565b60008115159050919050565b600073ffffffffffffffffffffffffffffffffffffffff82169050919050565b6000819050919050565b82818337600083830152505050565b60005b83811015611a5a578082015181840152602081019050611a3f565b83811115611a69576000848401525b50505050565b6000601f19601f8301169050919050565b611a89816119e5565b8114611a9457600080fd5b50565b611aa081611a23565b8114611aab57600080fd5b5056fea365627a7a72315820f36d5d728b923522ccd502af923fc24c1a5bbce06555ce6bd7628f0d9837a6e56c6578706572696d656e74616cf564736f6c63430005100040",
  "source": "// SPDX-License-Identifier: MIT\r\npragma solidity >=0.4.22 <0.9.0;\r\npragma experimental ABIEncoderV2;\r\nimport \"./User.sol\";\r\n\r\ncontract Certificate {\r\n    struct User {\r\n    string name;\r\n    address addr;\r\n    uint role;\r\n  }\r\n  User[] public listUser;\r\n  mapping (address => uint) userId;\r\n  mapping (address => bool) isUser;\r\n  mapping (address => bool) isIssuer;\r\n  mapping (address => bool) isRecipient;\r\n  mapping (address => bool) isLogin;\r\n  mapping (address => string) addressToName;\r\n  function signUp(string memory name,uint role) public {\r\n    require(isLogin[msg.sender]==false,\"you are loged in\");\r\n    require(isUser[msg.sender]==false,\"this user has already been signup\");\r\n    isUser[msg.sender]=true;\r\n    User memory user;\r\n    user.name=name;\r\n    user.addr=msg.sender;\r\n    user.role=role;\r\n    addressToName[msg.sender]=name;\r\n    if (role==1){\r\n      isIssuer[msg.sender]=true;\r\n    }\r\n    else {\r\n      isRecipient[msg.sender]=true;\r\n    }\r\n    listUser.push(user);\r\n    userId[msg.sender]=listUser.length-1;\r\n  }\r\n  function getNameByAddress(address addr) public view returns(string memory){\r\n    return addressToName[addr];\r\n  }\r\n  function checkIssuer(address addr) public view returns(bool){\r\n    return isIssuer[addr];\r\n  }\r\n  function checkRecipient(address addr) public view returns(bool){\r\n    return isRecipient[addr];\r\n  }\r\n  function getUserById(uint id) public view returns(string memory,address){\r\n    return (listUser[id].name,listUser[id].addr);\r\n  }\r\n  \r\n  function getMyProfile() public view returns(string memory,address){\r\n    uint id=userId[msg.sender];\r\n    return (listUser[id].name,listUser[id].addr);\r\n  }\r\n  struct Certificate {\r\n    string title;\r\n    string ipfsHash;\r\n    string issuer;\r\n    string recipient;\r\n    uint256 issueDate;\r\n  }\r\n  Certificate[] certificateList;\r\n  uint256 public certificateId;\r\n  mapping(address => uint[]) certificateOfIssuer;\r\n  mapping(address => uint[]) certificateOfRecipient;\r\n  function issueCertificate(address recipient,string memory title, string memory ipfsHash ,uint256 issueDate) public{\r\n    require(checkIssuer(msg.sender)==true,\"you don't have priority to issue certificate\");\r\n    uint id = ++certificateId;\r\n    Certificate memory certi;\r\n    certi.title=title;\r\n    certi.ipfsHash=ipfsHash;\r\n    certi.issuer=getNameByAddress(msg.sender);\r\n    certi.recipient=getNameByAddress(recipient);\r\n    certi.issueDate=block.timestamp;\r\n    certificateList.push(certi);\r\n    certificateOfIssuer[msg.sender].push(id);\r\n    certificateOfRecipient[recipient].push(id);\r\n  }\r\n  function getCertificateById(uint id) public view returns(Certificate memory ){\r\n    return certificateList[id];\r\n  }\r\n  function getCertificateIdOfUser(address recipient) public view returns(uint[] memory){\r\n    return certificateOfRecipient[recipient];\r\n  }\r\n  function getCertificateIdIdIssuer(address issuer) public view returns(uint[] memory){\r\n    return certificateOfIssuer[issuer];\r\n  }\r\n}\r\n",
  "sourcePath": "E:/certificate issue/certificate/contracts/Certificate.sol",
  "compiler": {
    "name": "solc",
    "version": "0.5.16+commit.9c3226ce.Emscripten.clang"
  },
  "schemaVersion": "3.4.1",
  "updatedAt": "2021-06-23T06:30:49.364Z",
  "networkType": "ethereum",
  "devdoc": {
    "methods": {}
  },
  "userdoc": {
    "methods": {}
  }
}